{
  "contractName": "Wallet",
  "abi": [
    {
      "inputs": [
        {
          "internalType": "address[]",
          "name": "_approvers",
          "type": "address[]"
        },
        {
          "internalType": "uint256",
          "name": "_quorum",
          "type": "uint256"
        }
      ],
      "stateMutability": "nonpayable",
      "type": "constructor"
    },
    {
      "inputs": [
        {
          "internalType": "uint256",
          "name": "",
          "type": "uint256"
        }
      ],
      "name": "approvers",
      "outputs": [
        {
          "internalType": "address",
          "name": "",
          "type": "address"
        }
      ],
      "stateMutability": "view",
      "type": "function",
      "constant": true
    },
    {
      "inputs": [],
      "name": "quorum",
      "outputs": [
        {
          "internalType": "uint256",
          "name": "",
          "type": "uint256"
        }
      ],
      "stateMutability": "view",
      "type": "function",
      "constant": true
    },
    {
      "inputs": [
        {
          "internalType": "uint256",
          "name": "",
          "type": "uint256"
        }
      ],
      "name": "transfers",
      "outputs": [
        {
          "internalType": "uint256",
          "name": "id",
          "type": "uint256"
        },
        {
          "internalType": "uint256",
          "name": "amount",
          "type": "uint256"
        },
        {
          "internalType": "address payable",
          "name": "to",
          "type": "address"
        },
        {
          "internalType": "uint256",
          "name": "approvals",
          "type": "uint256"
        },
        {
          "internalType": "bool",
          "name": "sent",
          "type": "bool"
        }
      ],
      "stateMutability": "view",
      "type": "function",
      "constant": true
    },
    {
      "stateMutability": "payable",
      "type": "receive",
      "payable": true
    },
    {
      "inputs": [],
      "name": "getTransfers",
      "outputs": [
        {
          "components": [
            {
              "internalType": "uint256",
              "name": "id",
              "type": "uint256"
            },
            {
              "internalType": "uint256",
              "name": "amount",
              "type": "uint256"
            },
            {
              "internalType": "address payable",
              "name": "to",
              "type": "address"
            },
            {
              "internalType": "uint256",
              "name": "approvals",
              "type": "uint256"
            },
            {
              "internalType": "bool",
              "name": "sent",
              "type": "bool"
            }
          ],
          "internalType": "struct Wallet.Transfer[]",
          "name": "",
          "type": "tuple[]"
        }
      ],
      "stateMutability": "view",
      "type": "function",
      "constant": true
    },
    {
      "inputs": [
        {
          "internalType": "uint256",
          "name": "id",
          "type": "uint256"
        }
      ],
      "name": "approveTransfer",
      "outputs": [],
      "stateMutability": "nonpayable",
      "type": "function"
    },
    {
      "inputs": [
        {
          "internalType": "address payable",
          "name": "to",
          "type": "address"
        },
        {
          "internalType": "uint256",
          "name": "amount",
          "type": "uint256"
        }
      ],
      "name": "createTransfer",
      "outputs": [],
      "stateMutability": "nonpayable",
      "type": "function"
    },
    {
      "inputs": [],
      "name": "getApprovers",
      "outputs": [
        {
          "internalType": "address[]",
          "name": "",
          "type": "address[]"
        }
      ],
      "stateMutability": "view",
      "type": "function",
      "constant": true
    }
  ],
  "bytecode": "0x60806040523480156200001157600080fd5b506040516200120c3803806200120c8339818101604052620000379190810190620001ef565b81600090805190602001906200004f9291906200005f565b5080600181905550505062000312565b828054828255906000526020600020908101928215620000db579160200282015b82811115620000da5782518260006101000a81548173ffffffffffffffffffffffffffffffffffffffff021916908373ffffffffffffffffffffffffffffffffffffffff1602179055509160200191906001019062000080565b5b509050620000ea9190620000ee565b5090565b6200013191905b808211156200012d57600081816101000a81549073ffffffffffffffffffffffffffffffffffffffff021916905550600101620000f5565b5090565b90565b6000815190506200014581620002de565b92915050565b600082601f8301126200015d57600080fd5b8151620001746200016e8262000277565b62000249565b915081818352602084019350602081019050838560208402820111156200019a57600080fd5b60005b83811015620001ce5781620001b3888262000134565b8452602084019350602083019250506001810190506200019d565b5050505092915050565b600081519050620001e981620002f8565b92915050565b600080604083850312156200020357600080fd5b600083015167ffffffffffffffff8111156200021e57600080fd5b6200022c858286016200014b565b92505060206200023f85828601620001d8565b9150509250929050565b6000604051905081810181811067ffffffffffffffff821117156200026d57600080fd5b8060405250919050565b600067ffffffffffffffff8211156200028f57600080fd5b602082029050602081019050919050565b6000620002ad82620002b4565b9050919050565b600073ffffffffffffffffffffffffffffffffffffffff82169050919050565b6000819050919050565b620002e981620002a0565b8114620002f557600080fd5b50565b6200030381620002d4565b81146200030f57600080fd5b50565b610eea80620003226000396000f3fe6080604052600436106100745760003560e01c80636cb3e8ef1161004e5780636cb3e8ef146100ff5780639377d7111461012a578063cacca4a01461016b578063d3650fb8146101945761007b565b80631703a018146100805780632f65142c146100ab5780633ac172dd146100d65761007b565b3661007b57005b600080fd5b34801561008c57600080fd5b506100956101d1565b6040516100a29190610d3b565b60405180910390f35b3480156100b757600080fd5b506100c06101d7565b6040516100cd9190610cb9565b60405180910390f35b3480156100e257600080fd5b506100fd60048036036100f8919081019061098b565b6102c5565b005b34801561010b57600080fd5b50610114610498565b6040516101219190610c97565b60405180910390f35b34801561013657600080fd5b50610151600480360361014c91908101906109c7565b610526565b604051610162959493929190610d56565b60405180910390f35b34801561017757600080fd5b50610192600480360361018d91908101906109c7565b610596565b005b3480156101a057600080fd5b506101bb60048036036101b691908101906109c7565b610925565b6040516101c89190610c7c565b60405180910390f35b60015481565b60606002805480602002602001604051908101604052809291908181526020016000905b828210156102bc57838290600052602060002090600502016040518060a001604052908160008201548152602001600182015481526020016002820160009054906101000a900473ffffffffffffffffffffffffffffffffffffffff1673ffffffffffffffffffffffffffffffffffffffff1673ffffffffffffffffffffffffffffffffffffffff168152602001600382015481526020016004820160009054906101000a900460ff161515151581525050815260200190600101906101fb565b50505050905090565b600080905060008090505b60008054905081101561035a573373ffffffffffffffffffffffffffffffffffffffff166000828154811061030157fe5b9060005260206000200160009054906101000a900473ffffffffffffffffffffffffffffffffffffffff1673ffffffffffffffffffffffffffffffffffffffff16141561034d57600191505b80806001019150506102d0565b508061039b576040517f08c379a000000000000000000000000000000000000000000000000000000000815260040161039290610d1b565b60405180910390fd5b60026040518060a0016040528060028054905081526020018481526020018573ffffffffffffffffffffffffffffffffffffffff16815260200160008152602001600015158152509080600181540180825580915050600190039060005260206000209060050201600090919091909150600082015181600001556020820151816001015560408201518160020160006101000a81548173ffffffffffffffffffffffffffffffffffffffff021916908373ffffffffffffffffffffffffffffffffffffffff1602179055506060820151816003015560808201518160040160006101000a81548160ff0219169083151502179055505050505050565b6060600080548060200260200160405190810160405280929190818152602001828054801561051c57602002820191906000526020600020905b8160009054906101000a900473ffffffffffffffffffffffffffffffffffffffff1673ffffffffffffffffffffffffffffffffffffffff16815260200190600101908083116104d2575b5050505050905090565b6002818154811061053357fe5b90600052602060002090600502016000915090508060000154908060010154908060020160009054906101000a900473ffffffffffffffffffffffffffffffffffffffff16908060030154908060040160009054906101000a900460ff16905085565b600080905060008090505b60008054905081101561062b573373ffffffffffffffffffffffffffffffffffffffff16600082815481106105d257fe5b9060005260206000200160009054906101000a900473ffffffffffffffffffffffffffffffffffffffff1673ffffffffffffffffffffffffffffffffffffffff16141561061e57600191505b80806001019150506105a1565b508061066c576040517f08c379a000000000000000000000000000000000000000000000000000000000815260040161066390610d1b565b60405180910390fd5b600015156002838154811061067d57fe5b906000526020600020906005020160040160009054906101000a900460ff161515146106de576040517f08c379a00000000000000000000000000000000000000000000000000000000081526004016106d590610cfb565b60405180910390fd5b60001515600360003373ffffffffffffffffffffffffffffffffffffffff1673ffffffffffffffffffffffffffffffffffffffff168152602001908152602001600020600084815260200190815260200160002060009054906101000a900460ff16151514610782576040517f08c379a000000000000000000000000000000000000000000000000000000000815260040161077990610cdb565b60405180910390fd5b6001600360003373ffffffffffffffffffffffffffffffffffffffff1673ffffffffffffffffffffffffffffffffffffffff168152602001908152602001600020600084815260200190815260200160002060006101000a81548160ff021916908315150217905550600282815481106107f857fe5b9060005260206000209060050201600301600081548092919060010191905055506001546002838154811061082957fe5b906000526020600020906005020160030154106109215760016002838154811061084f57fe5b906000526020600020906005020160040160006101000a81548160ff02191690831515021790555060006002838154811061088657fe5b906000526020600020906005020160020160009054906101000a900473ffffffffffffffffffffffffffffffffffffffff1690508073ffffffffffffffffffffffffffffffffffffffff166108fc600285815481106108e157fe5b9060005260206000209060050201600101549081150290604051600060405180830381858888f1935050505015801561091e573d6000803e3d6000fd5b50505b5050565b6000818154811061093257fe5b906000526020600020016000915054906101000a900473ffffffffffffffffffffffffffffffffffffffff1681565b60008135905061097081610e86565b92915050565b60008135905061098581610e9d565b92915050565b6000806040838503121561099e57600080fd5b60006109ac85828601610961565b92505060206109bd85828601610976565b9150509250929050565b6000602082840312156109d957600080fd5b60006109e784828501610976565b91505092915050565b60006109fc8383610a3e565b60208301905092915050565b6000610a148383610bf6565b60a08301905092915050565b610a2981610e3e565b82525050565b610a3881610e3e565b82525050565b610a4781610e2c565b82525050565b610a5681610e2c565b82525050565b6000610a6782610dc9565b610a718185610df9565b9350610a7c83610da9565b8060005b83811015610aad578151610a9488826109f0565b9750610a9f83610ddf565b925050600181019050610a80565b5085935050505092915050565b6000610ac582610dd4565b610acf8185610e0a565b9350610ada83610db9565b8060005b83811015610b0b578151610af28882610a08565b9750610afd83610dec565b925050600181019050610ade565b5085935050505092915050565b610b2181610e50565b82525050565b610b3081610e50565b82525050565b6000610b43601983610e1b565b91507f5472616e7366657220616c726561647920617070726f766564000000000000006000830152602082019050919050565b6000610b83601a83610e1b565b91507f5472616e7366657220616c726561647920636f6d706c657465640000000000006000830152602082019050919050565b6000610bc3601a83610e1b565b91507f556e7065726d69747465642073656e64657220616464726573730000000000006000830152602082019050919050565b60a082016000820151610c0c6000850182610c5e565b506020820151610c1f6020850182610c5e565b506040820151610c326040850182610a20565b506060820151610c456060850182610c5e565b506080820151610c586080850182610b18565b50505050565b610c6781610e7c565b82525050565b610c7681610e7c565b82525050565b6000602082019050610c916000830184610a4d565b92915050565b60006020820190508181036000830152610cb18184610a5c565b905092915050565b60006020820190508181036000830152610cd38184610aba565b905092915050565b60006020820190508181036000830152610cf481610b36565b9050919050565b60006020820190508181036000830152610d1481610b76565b9050919050565b60006020820190508181036000830152610d3481610bb6565b9050919050565b6000602082019050610d506000830184610c6d565b92915050565b600060a082019050610d6b6000830188610c6d565b610d786020830187610c6d565b610d856040830186610a2f565b610d926060830185610c6d565b610d9f6080830184610b27565b9695505050505050565b6000819050602082019050919050565b6000819050602082019050919050565b600081519050919050565b600081519050919050565b6000602082019050919050565b6000602082019050919050565b600082825260208201905092915050565b600082825260208201905092915050565b600082825260208201905092915050565b6000610e3782610e5c565b9050919050565b6000610e4982610e5c565b9050919050565b60008115159050919050565b600073ffffffffffffffffffffffffffffffffffffffff82169050919050565b6000819050919050565b610e8f81610e3e565b8114610e9a57600080fd5b50565b610ea681610e7c565b8114610eb157600080fd5b5056fea2646970667358221220fa17b54cd68d3c2c38fa34058ec39ca2f677a8b71476f67957445ee84fc8786d64736f6c63430006000033",
  "source": "pragma solidity 0.6.0;\npragma experimental ABIEncoderV2;\n\ncontract Wallet {\n    address[] public approvers;\n    uint public quorum;\n\n    struct Transfer {\n        uint id;\n        uint amount;\n        address payable to;\n        uint approvals;\n        bool sent;\n    }\n    Transfer[] public transfers;\n    mapping(address => mapping(uint => bool)) approvals;\n\n    constructor(address[] memory _approvers, uint _quorum) public {\n        approvers = _approvers;\n        quorum = _quorum;\n    }\n\n    function getTransfers() external view returns(Transfer[] memory) {\n        return transfers;\n    }\n\n    function approveTransfer(uint id) external onlyApprover() {\n        require(transfers[id].sent == false, 'Transfer already completed');\n        require(approvals[msg.sender][id] == false, 'Transfer already approved');\n\n        approvals[msg.sender][id] = true;\n        transfers[id].approvals++;\n\n        if (transfers[id].approvals >= quorum) {\n            transfers[id].sent = true;\n            address payable to = transfers[id].to;\n            to.transfer(transfers[id].amount);\n\n        }\n    }\n\n    function createTransfer(address payable to, uint amount) external onlyApprover() {\n        transfers.push(Transfer({\n            id: transfers.length,\n            amount: amount,\n            to: to,\n            approvals: 0,\n            sent: false\n        }));\n    }\n\n    function getApprovers() external view returns(address[] memory){\n        return approvers;\n    }\n\n    receive() external payable {}\n\n    modifier onlyApprover() {\n        bool allowed = false;\n\n        for (uint i = 0; i < approvers.length; i++) {\n            if (approvers[i] == msg.sender) {\n                allowed = true;\n            }\n        }\n\n        require(allowed, 'Unpermitted sender address');\n        _;\n    } \n}\n",
  "sourcePath": "/Users/zacwillmington/Desktop/blockchain-projects/wallet/contracts/Wallet.sol",
  "compiler": {
    "name": "solc",
    "version": "0.6.0+commit.26b70077.Emscripten.clang"
  },
  "schemaVersion": "3.4.4",
  "updatedAt": "2022-01-29T16:41:35.271Z",
  "networkType": "ethereum",
  "devdoc": {
    "methods": {}
  },
  "userdoc": {
    "methods": {}
  }
}